:04000000DCEF35F00C
:106B820000000040D58ED58CD59AD598D596D55093
:106B9200F80B0609D56EF28A12000F0EC16E100EA6
:106BA200926E40EC36F0C3EC35F097EC3DF0D6EF48
:106BB20035F000EF00F0820EF66E6B0EF76E000EEF
:106BC200F86E00EE4BF010EE04F00900F5CFEEFF88
:106BD200E550E150FAE100EE3DF00E0EEE6AE806F5
:106BE200FDE10001CEEF35F0000E2C1A000E2D1A39
:106BF200000E2E1A800E2F1A28C001F029C002F0B2
:106C02002AC003F02BC004F02CC005F02DC006F002
:106C12002EC007F02FC008F037EC3BF001C028F07F
:106C220002C029F003C02AF004C02BF01200016E4A
:106C3200F00E8316F00E951601380F0B0F0B831012
:106C4200836E8C9C8C9A080EE82EFED700F08C88FE
:106C5200080EE82EFED700F08C98F00E8316015035
:106C62000F0B8312080EE82EFED700F08C88080E58
:106C7200E82EFED700F08C980F0E9512120083506A
:106C8200F00B836EF00E9516959C959A95988C9CB8
:106C92008C9A8C98620E026E660EE82EFED7022E39
:106CA200FCD7300E18EC36F0210E026E760EE82E6E
:106CB200FED7022EFCD700D0300E18EC36F0A60E0E
:106CC200E82EFED700D0320E18EC36F0A60EE82ED3
:106CD200FED700D0A60EE82EFED700D0280E18EC64
:106CE20036F0A60EE82EFED700D0080E18EC36F0CD
:106CF200A60EE82EFED700D00F0E18EC36F0A60E28
:106D0200E82EFED700D0010E18EC36F0A60EE82EC3
:106D1200FED700D0040E18EC36F0A60EE82EFED7F1
:106D220000D0A60EE82EFED700D0060E18EC36F0E4
:106D32000C0E18EC36F012002A342B34316E31501E
:106D4200D8A4A6EF36F0A8EF36F0B2EF36F0000E78
:106D5200286E000E296E000E2A6E000E2B6E1FEF9B
:106D620037F028C02CF029C02DF02AC02EF02BC0FD
:106D72002FF0200EC2EF36F0D8902F322E322D3265
:106D82002C32E82EBDEF36F02C50306E2A8EFF0EDC
:106D92002816FF0E2916FF0E2A16000E2B16960E27
:106DA200315E31BED9EF36F0D7EF36F0EFEF36F085
:106DB2003150800A970FD8B0E1EF36F0E3EF36F0AA
:106DC200E5EF36F0A8EF36F0D8902B322A3229328E
:106DD2002832313EE5EF36F007EF37F01F0E31640F
:106DE200F5EF36F0F7EF36F0FFEF36F0A8EF36F0BA
:106DF200D890283629362A362B3631063150D8A477
:106E020005EF37F007EF37F0F9EF36F03050D8B42E
:106E12000DEF37F00FEF37F017EF37F02B1E2A1E6A
:106E2200291E286C000E29222A222B2228C028F093
:106E320029C029F02AC02AF02BC02BF0120034C03E
:106E420013F035C014F036C015F037C016F032C05A
:106E520001F033C002F0000E02BEFF0E036E046E9C
:106E6200010E90EC38F001C00FF002C010F003C028
:106E720011F004C012F06AEC39F00FC028F010C013
:106E820029F011C02AF012C02BF09DEC36F028C078
:106E920032F029C033F0000E136E000E146E000E95
:106EA200156E400E166E34C00FF035C010F036C0AD
:106EB20011F037C012F06AEC39F00FC039F010C08F
:106EC2003AF011C03BF012C03CF0000E286E000EEA
:106ED200296E7F0E2A6E430E2B6E170E136EB70E9F
:106EE200146ED10E156E3C0E166E39C00FF03AC0FC
:106EF20010F03BC011F03CC012F06AEC39F00FC048
:106F02002CF010C02DF011C02EF012C02FF0F5ECB5
:106F120035F028C034F029C035F02AC036F02BC035
:106F220037F0000E486E000E476EC8EF37F08090C3
:106F320034C028F035C029F036C02AF037C02BF013
:106F42009DEC36F028C0D6FF29C0D7FFF2A4ACEFE3
:106F520037F0AEEF37F0A7EF37F0F294809034C0FD
:106F620028F035C029F036C02AF037C02BF09DEC4E
:106F720036F028C0D6FF29C0D7FFF2A4C3EF37F0FE
:106F8200C5EF37F0BEEF37F0F294474A482A325045
:106F9200475C4850800A386E3350800A3858D8A06F
:106FA200D5EF37F0D7EF37F098EF37F0120034C053
:106FB20013F035C014F036C015F037C016F032C0E9
:106FC20001F033C002F0000E02BEFF0E036E046E2B
:106FD200010E90EC38F001C00FF002C010F003C0B7
:106FE20011F004C012F06AEC39F00FC028F010C0A2
:106FF20029F011C02AF012C02BF09DEC36F028C007
:1070020032F029C033F0000E136E000E146E000E23
:10701200156E400E166E34C00FF035C010F036C03B
:1070220011F037C012F06AEC39F00FC039F010C01D
:107032003AF011C03BF012C03CF0000E286E000E78
:10704200296E7F0E2A6E430E2B6E170E136EB70E2D
:10705200146ED10E156E3C0E166E39C00FF03AC08A
:1070620010F03BC011F03CC012F06AEC39F00FC0D6
:107072002CF010C02DF011C02EF012C02FF0F5EC44
:1070820035F028C034F029C035F02AC036F02BC0C4
:1070920037F0000E486E000E476E80EF38F08080A9
:1070A20034C028F035C029F036C02AF037C02BF0A2
:1070B2009DEC36F028C0D6FF29C0D7FFF2A464EFBA
:1070C20038F066EF38F05FEF38F0F294809034C019
:1070D20028F035C029F036C02AF037C02BF09DECDD
:1070E20036F028C0D6FF29C0D7FFF2A47BEF38F0D4
:1070F2007DEF38F076EF38F0F294474A482A325062
:10710200475C4850800A386E3350800A3858D8A0FD
:107112008DEF38F08FEF38F050EF38F01200096E33
:107122000950D8B497EF38F099EF38F0BBEF38F048
:1071320004BEA0EF38F09EEF38F0BBEF38F001C08C
:1071420005F002C006F003C007F004C008F0051EF7
:10715200061E071E081E052A000E06220722082206
:1071620005C00BF006C00CF007C00DF008C00EF011
:10717200C3EF38F001C00BF002C00CF003C00DF0F9
:1071820004C00EF00150021003100410D8A4CCEF7A
:1071920038F0CEEF38F0D8EF38F0000E016E000E66
:1071A200026E000E036E000E046E69EF39F0960E49
:1071B2000A6EE2EF38F00A2AD8900E320D320C3203
:1071C2000B32000E0B14056E000E0C14066E000E30
:1071D2000D14076EFE0E0E14086E055006100710F1
:1071E2000810D8A4F7EF38F0F9EF38F0DCEF38F0F8
:1071F20007EF39F00A2A010E0B26000E0C220D228F
:107202000E22D8900E320D320C320B32000E0B14BD
:10721200056E000E0C14066E000E0D14076EFF0EA6
:107222000E14086E0550061007100810D8A41CEFA3
:1072320039F01EEF39F0FBEF38F026EF39F00A068D
:10724200D8900B360C360D360E360DBE2BEF39F0BC
:107252002DEF39F035EF39F0020E0A6033EF39F0D5
:1072620035EF39F020EF39F00AB03AEF39F03CEF60
:1072720039F03DEF39F00D9ED8900A320AC005F080
:10728200066A076A086A05C008F0076A066A056A9C
:1072920005500B1206500C1207500D1208500E1218
:1072A2000950D8B457EF39F059EF39F061EF39F09E
:1072B20004BE60EF39F05EEF39F061EF39F00E8E07
:1072C2000BC001F00CC002F00DC003F00EC004F0C0
:1072D20012001250800B1F6E12501224266E11AE35
:1072E20075EF39F077EF39F078EF39F026802650D4
:1072F200D8B47EEF39F080EF39F095EF39F02628D7
:10730200D8A486EF39F088EF39F090EF39F0000E0B
:107312000F6E000E106E000E116E000E126E118EA8
:10732200000E126E9DEF39F0000E0F6E000E106E01
:10733200000E116E000E126E1650800B1F1A1650A0
:107342001624276E15AEA8EF39F0AAEF39F0ABEF8D
:1073520039F027802750D8B4B1EF39F0B3EF39F0C4
:10736200C8EF39F02728D8A4B9EF39F0BBEF39F0CC
:10737200C3EF39F0000E136E000E146E000E156E80
:10738200000E166E158E000E166ED0EF39F0000E3E
:10739200136E000E146E000E156E000E166E135054
:1073A200141015101610D8A4D9EF39F0DBEF39F00C
:1073B200F3EF39F0000E0F6E000E106E000E116E1C
:1073C200000E126E800E11127F0E12121F50121238
:1073D2000FC00FF010C010F011C011F012C012F067
:1073E20036EF3BF02650D8A4F9EF39F0FBEF39F035
:1073F20005EF3AF0000E0F6E000E106E000E116EC9
:10740200000E126E36EF3BF0275026C017F0186AB6
:10741200175E000E185A7F0E1724206E000E1820D9
:10742200216E0FC01BF010C01CF011C01DF012C065
:107432001EF0000E0F6E000E106E000E116E000E8A
:10744200126E000E226E000E236E000E246E000ECF
:10745200256E000E276E66EF3AF02750D8B434EF4F
:107462003AF036EF3AF04DEF3AF0D8901B361C3630
:107472001D361E36D8900F3610361136123625AE0E
:1074820045EF3AF047EF3AF048EF3AF00F80D890E4
:10749200223623362436253613501B5C14501C58D2
:1074A20015501D5816501E58D8A05AEF3AF05CEFEE
:1074B2003AF065EF3AF0258C13501B5E14501C5ABB
:1074C20015501D5A16501E5A272A190E27646CEFA2
:1074D2003AF06EEF3AF02EEF3AF01B501C101D10EE
:1074E2001E10D8B477EF3AF079EF3AF091EF3AF014
:1074F200228091EF3AF0D8900F36103611361236BC
:1075020025AE86EF3AF088EF3AF089EF3AF00F8035
:10751200D89022362336243625362006D8A02106D6
:1075220011AE96EF3AF098EF3AF07CEF3AF0000E97
:10753200276E25AE9FEF3AF0A1EF3AF0C5EF3AF091
:10754200FF0E2214176EFF0E2314186EFF0E241462
:10755200196E7F0E25141A6E1750181019101A1072
:10756200D8B4B6EF3AF0B8EF3AF0BCEF3AF0010E09
:10757200276EC5EF3AF00FA0C1EF3AF0C3EF3AF031
:10758200C5EF3AF0B8EF3AF02750D8B4CBEF3AF063
:10759200CDEF3AF0F1EF3AF0010E0F26000E102275
:1075A2001122122212A0D8EF3AF0DAEF3AF0F1EFFC
:1075B2003AF00FC017F010C018F011C019F012C045
:1075C2001AF01A341A3219321832173217C00FF061
:1075D20018C010F019C011F01AC012F0204A212A66
:1075E20021BEFCEF3AF0215008E12028D8A0FCEFA0
:1075F2003AF0FEEF3AF009EF3BF0000E216E206800
:10760200000E0F6E000E106E000E116E000E126E46
:1076120021BE16EF3BF0215006E12004D8B014EF52
:107622003BF016EF3BF024EF3BF0000E216E000E14
:10763200206E000E0F6E000E106E000E116E000E08
:10764200126E000E1F6E20C026F026A02BEF3BF01C
:107652002DEF3BF030EF3BF0118E31EF3BF0119EFE
:10766200D8902630126EE7EF39F012000450800BEA
:107672000D6E045004240F6E03AE42EF3BF044EF54
:107682003BF045EF3BF00F800F50D8B44BEF3BF08F
:107692004DEF3BF062EF3BF00F28D8A453EF3BF0E5
:1076A20055EF3BF05DEF3BF0000E016E000E026EF7
:1076B200000E036E000E046E038E000E046E6AEF5F
:1076C2003BF0000E016E000E026E000E036E000E05
:1076D200046E0850800B0E6E0D500E18D8B474EF65
:1076E2003BF076EF3BF077EF3BF00D8C085008242F
:1076F2000E6E07AE7FEF3BF081EF3BF082EF3BF087
:107702000E800E50D8B488EF3BF08AEF3BF09FEF2B
:107712003BF00E28D8A490EF3BF092EF3BF09AEFAB
:107722003BF0000E056E000E066E000E076E000E98
:10773200086E078E000E086EA7EF3BF0000E056E76
:10774200000E066E000E076E000E086E0F500E5CE5
:10775200D8B0AEEF3BF0B0EF3BF0D7EF3BF00DAC63
:10776200B5EF3BF0B7EF3BF0B9EF3BF0800E0D1AEF
:107772000FC010F00EC00FF010C00EF001C010F0DC
:1077820005C001F010C005F002C010F006C002F002
:1077920010C006F003C010F007C003F010C007F0DD
:1077A20004C010F008C004F010C008F0000E106E03
:1077B2000F500EC009F00A6A095E000E0A5A0ABE8C
:1077C200ECEF3BF00A5009E11A0E095CD8A0ECEF8D
:1077D2003BF0EEEF3BF025EF3CF0015002100310BE
:1077E2000410D8A4F7EF3BF0FAEF3BF0010EFBEFE9
:1077F2003BF0000E106E000E016E000E026E000EC7
:10780200036E000E046E0EC00FF02EEF3CF010A0BF
:107812000DEF3CF00FEF3CF015EF3CF0D89010303C
:107822000109106E17EF3CF0D890103201A01CEF46
:107832003CF01EEF3CF01FEF3CF0108E043404329B
:107842000332023201320F2A0E500F5CD8A02CEF05
:107852003CF02EEF3CF008EF3CF00DBC33EF3CF077
:1078620035EF3CF075EF3CF00F50D8A43BEF3CF005
:107872003DEF3CF047EF3CF0000E016E000E026E51
:10788200000E036E000E046E96EF3DF005500126C9
:1078920006500222075003220850042204A054EF8B
:1078A2003CF056EF3CF002EF3DF010A05BEF3CF0F5
:1078B2005DEF3CF063EF3CF0D89010300109106EA0
:1078C20065EF3CF0D890103201A06AEF3CF06CEF0B
:1078D2003CF06DEF3CF0108E04340432033202327D
:1078E20001320F2A02EF3DF00550015C06500258AA
:1078F200075003580450800A096E0850800A09583C
:10790200D8B086EF3CF088EF3CF0B3EF3CF001508A
:10791200055C096E025006580A6E035007580B6E3A
:10792200045008580C6EFF0E0924016EFF0E0A2047
:10793200026EFF0E0B20036EFF0E0C20046E800EF3
:107942000D1A106C1050D8A4A9EF3CF0ABEF3CF02C
:10795200BBEF3CF0010E0126000E0222032204229C
:10796200BBEF3CF00550015E0650025A0750035A25
:107972000850045A0150021003100410D8A4C4EF96
:107982003CF0C6EF3CF0FBEF3CF01050D8A4CCEF3B
:107992003CF0CEEF3CF0FBEF3CF0000E016E000E2F
:1079A200026E000E036E000E046E96EF3DF0D8904C
:1079B200013602360336043610AEE2EF3CF0E4EF55
:1079C2003CF0E5EF3CF0018010A0EAEF3CF0ECEF78
:1079D2003CF0F0EF3CF0D8801036F2EF3CF0D8905B
:1079E20010360F50D8B4F8EF3CF0FAEF3CF0FBEF52
:1079F2003CF00F0603AE00EF3DF002EF3DF0D8EF92
:107A02003CF0000E0E6E10AE09EF3DF00BEF3DF0B4
:107A120023EF3DF010C009F07F0E0916D8B414EF21
:107A22003DF016EF3DF01AEF3DF0010E0E6E23EF22
:107A32003DF001A01FEF3DF021EF3DF023EF3DF0BF
:107A420016EF3DF00E50D8B429EF3DF02BEF3DF08C
:107A520056EF3DF0010E0126000E022203220422FF
:107A620004A036EF3DF038EF3DF056EF3DF001C097
:107A720009F002C00AF003C00BF004C00CF00C3491
:107A82000C320B320A32093209C001F00AC002F08C
:107A92000BC003F00CC004F00F28D8B453EF3DF034
:107AA20055EF3DF056EF3DF00F2A0F28D8B45CEFAA
:107AB2003DF05EEF3DF066EF3DF00F50D8A464EF6D
:107AC2003DF066EF3DF078EF3DF0000E016E000EE6
:107AD200026E000E036E000E046E0F50D8A474EFF7
:107AE2003DF076EF3DF078EF3DF0000E0D6E0FA009
:107AF2007DEF3DF07FEF3DF082EF3DF0038E83EFAF
:107B02003DF0039ED8900F30046E0DAE8BEF3DF02A
:107B12008DEF3DF08EEF3DF0048E01C001F002C00A
:107B220002F003C003F004C004F01200010E336E31
:107B3200F40E326E0E0E346E2D0E356E420E366E11
:107B4200400E376ED8EC37F0010E336EF40E326E03
:107B52000E0E346E2D0E356E420E366E400E376EA0
:107B6200D8EC37F0010E336EF40E326E0E0E346E18
:107B72002D0E356E420E366E400E376ED8EC37F053
:107B8200010E336E770E326EE10E346E7A0E356E62
:107B9200740E366E400E376ED8EC37F0000E336E30
:107BA2007D0E326E960E346E430E356E230E366E99
:107BB200400E376ED8EC37F0010E336EF40E326E93
:107BC2000E0E346E2D0E356E420E366E400E376E30
:107BD200D8EC37F0010E336E770E326EE10E346E52
:107BE2007A0E356E740E366E400E376ED8EC37F064
:107BF200000E336E7D0E326E960E346E430E356E6F
:107C0200230E366E400E376ED8EC37F0030E336E0D
:107C1200E80E326E0E0E346E2D0E356E420E366E3C
:107C2200400E376ED8EC37F0010E336EF40E326E22
:107C3200C10E346ECA0E356E010E366E400E376EB0
:107C4200D8EC37F0010E336EF40E326EC10E346E84
:107C5200CA0E356E010E366E400E376ED8EC37F016
:107C6200010E336EF40E326EC10E346ECA0E356ED4
:107C7200010E366E400E376ED8EC37F0010E336EC1
:107C8200770E326EA60E346E9B0E356EF40E366E85
:107C92003F0E376ED8EC37F0000E336E7D0E326E2B
:107CA200960E346E430E356E230E366E400E376ED0
:107CB200D8EC37F0010E336EF40E326E3D0E346E98
:107CC2000A0E356E670E366E400E376ED8EC37F000
:107CD200010E336E770E326EE10E346E7A0E356E11
:107CE200740E366E400E376ED8EC37F0000E336EDF
:107CF2007D0E326E960E346E430E356E230E366E48
:107D0200400E376ED8EC37F0030E336EE80E326E4B
:107D12000E0E346E2D0E356E420E366E400E376EDE
:107D2200D8EC37F0010E336EF40E326E0E0E346E56
:107D32002D0E356EC20E366E3F0E376ED8EC37F012
:107D4200010E336E770E326E0E0E346E2D0E356EC0
:107D5200420E366E400E376ED8EC37F0000E336EA0
:107D62007D0E326E0E0E346E2D0E356E420E366E56
:107D7200400E376ED8EC37F0010E336EF40E326ED1
:107D82000E0E346E2D0E356EC20E366E3F0E376EEF
:107D9200D8EC37F0010E336E770E326E2D0E346E44
:107DA200B20E356ECD0E366E3F0E376ED8EC37F012
:107DB200000E336E7D0E326EE70E346EFB0E356EA4
:107DC200D90E366E3F0E376ED8EC37F0000E336E9A
:107DD2007D0E326E790E346EE90E356EE60E366E1B
:107DE2003F0E376ED8EC37F0000E336E7D0E326EDA
:107DF200A60E346E9B0E356EF40E366E3F0E376E47
:107E0200D8EC37F0010E336E2C0E326E790E346ED2
:107E1200E90E356EE60E366E3F0E376ED8EC37F051
:107E2200000E336E640E326EA60E346E9B0E356EED
:107E3200740E366E400E376E20EC37F0010E336E44
:107E42002C0E326E640E346E3B0E356E370E366E6D
:107E5200400E376ED8EC37F0010E336EF40E326EF0
:107E6200AE0E346E470E356E090E366E400E376E0C
:107E7200D8EC37F0010E336E770E326ED50E346EBB
:107E8200780E356E110E366E400E376ED8EC37F026
:107E9200000E336E7D0E326EAC0E346E1C0E356EDD
:107EA2001A0E366E400E376ED8EC37F0000E336E77
:107EB2007D0E326E960E346E430E356E230E366E86
:107EC200400E376ED8EC37F0000E336E7D0E326EF8
:107ED200F40E346EFD0E356E2C0E366E400E376E7D
:107EE200D8EC37F0010E336E2C0E326E960E346ED5
:107EF200430E356E230E366E400E376ED8EC37F0D9
:107F0200000E336E640E326EA60E346E9B0E356E0C
:107F1200740E366E400E376E20EC37F0010E336E63
:107F22002C0E326EA60E346E9B0E356E740E366EAD
:107F3200400E376ED8EC37F0010E336EF40E326E0F
:107F4200790E346EE90E356E660E366E400E376E61
:107F5200D8EC37F0010E336E770E326EA60E346E09
:107F62009B0E356E740E366E400E376ED8EC37F0BF
:107F7200000E336E7D0E326E960E346E430E356EEB
:107F8200230E366E400E376ED8EC37F0010E336E8C
:107F9200F40E326E0E0E346E2D0E356E420E366EAD
:107FA200400E376ED8EC37F0010E336E770E326E1C
:107FB200A60E346E9B0E356E740E366E400E376E04
:107FC200D8EC37F0000E336E7D0E326E960E346EA4
:107FD200430E356E230E366E400E376ED8EC37F0F8
:107FE200090E336EC40E326E0E0E346E2D0E356EC9
:0E7FF200420E366E400E376ED8EC37F012009D
:020000040020DA
:08000000FFFFFFFFFFFFFFFF00
:020000040030CA
:0E000000240C1F1FFF8385FF0FC00FE00F4071
:00000001FF
